{
  "contractName": "Storage",
  "abi": [
    {
      "anonymous": false,
      "inputs": [
        {
          "indexed": false,
          "internalType": "string",
          "name": "password",
          "type": "string"
        },
        {
          "indexed": false,
          "internalType": "string",
          "name": "salt",
          "type": "string"
        }
      ],
      "name": "SaltnPepper",
      "type": "event"
    },
    {
      "inputs": [],
      "name": "retriveAll",
      "outputs": [],
      "stateMutability": "nonpayable",
      "type": "function"
    },
    {
      "inputs": [
        {
          "internalType": "string",
          "name": "_password",
          "type": "string"
        },
        {
          "internalType": "string",
          "name": "_salt",
          "type": "string"
        }
      ],
      "name": "emitAll",
      "outputs": [],
      "stateMutability": "nonpayable",
      "type": "function"
    }
  ],
  "bytecode": "0x608060405234801561001057600080fd5b506105e3806100206000396000f3fe608060405234801561001057600080fd5b50600436106100365760003560e01c8063483313f51461003b578063de9ee36514610045575b600080fd5b610043610061565b005b61005f600480360381019061005a9190610415565b6100aa565b005b7fe938feae0c64164cf0fe7a4ac7883bf1ae02466489fbfb8cec45307b759afe3d61008a6100c0565b610092610152565b6040516100a0929190610515565b60405180910390a1565b6100b3826101e4565b6100bc816101fe565b5050565b6060600180546100cf9061057b565b80601f01602080910402602001604051908101604052809291908181526020018280546100fb9061057b565b80156101485780601f1061011d57610100808354040283529160200191610148565b820191906000526020600020905b81548152906001019060200180831161012b57829003601f168201915b5050505050905090565b6060600080546101619061057b565b80601f016020809104026020016040519081016040528092919081815260200182805461018d9061057b565b80156101da5780601f106101af576101008083540402835291602001916101da565b820191906000526020600020905b8154815290600101906020018083116101bd57829003601f168201915b5050505050905090565b80600190805190602001906101fa929190610218565b5050565b8060009080519060200190610214929190610218565b5050565b8280546102249061057b565b90600052602060002090601f016020900481019282610246576000855561028d565b82601f1061025f57805160ff191683800117855561028d565b8280016001018555821561028d579182015b8281111561028c578251825591602001919060010190610271565b5b50905061029a919061029e565b5090565b5b808211156102b757600081600090555060010161029f565b5090565b6000604051905090565b600080fd5b600080fd5b600080fd5b600080fd5b6000601f19601f8301169050919050565b7f4e487b7100000000000000000000000000000000000000000000000000000000600052604160045260246000fd5b610322826102d9565b810181811067ffffffffffffffff82111715610341576103406102ea565b5b80604052505050565b60006103546102bb565b90506103608282610319565b919050565b600067ffffffffffffffff8211156103805761037f6102ea565b5b610389826102d9565b9050602081019050919050565b82818337600083830152505050565b60006103b86103b384610365565b61034a565b9050828152602081018484840111156103d4576103d36102d4565b5b6103df848285610396565b509392505050565b600082601f8301126103fc576103fb6102cf565b5b813561040c8482602086016103a5565b91505092915050565b6000806040838503121561042c5761042b6102c5565b5b600083013567ffffffffffffffff81111561044a576104496102ca565b5b610456858286016103e7565b925050602083013567ffffffffffffffff811115610477576104766102ca565b5b610483858286016103e7565b9150509250929050565b600081519050919050565b600082825260208201905092915050565b60005b838110156104c75780820151818401526020810190506104ac565b838111156104d6576000848401525b50505050565b60006104e78261048d565b6104f18185610498565b93506105018185602086016104a9565b61050a816102d9565b840191505092915050565b6000604082019050818103600083015261052f81856104dc565b9050818103602083015261054381846104dc565b90509392505050565b7f4e487b7100000000000000000000000000000000000000000000000000000000600052602260045260246000fd5b6000600282049050600182168061059357607f821691505b602082108114156105a7576105a661054c565b5b5091905056fea2646970667358221220de9df6ab5306fc02802e43d41b6bd2457d2582bc45aa519e50a6c16e3f0d920c64736f6c63430008090033",
  "immutableReferences": {},
  "source": "// SPDX-License-Identifier: GPL-3.0\n\npragma solidity >=0.7.0 <0.9.0;\n\n/**\n * @title Storage\n * @dev Store & retrieve value in a variable\n */\ncontract Storage {\n    string salt;\n    string password; // Stored with bcrypt\n    event SaltnPepper(string password, string salt);\n\n    /**\n     * @dev Store the salt for bcrypt\n     * @param _salt value to store\n     */\n    function storeSalt(string memory _salt) private {\n        salt = _salt;\n    }\n\n    /**\n     * @dev Store the password for bcrypt\n     * @param _password value to store\n     */\n    function storePassword(string memory _password) private {\n        password = _password;\n    }\n\n    /**\n     * @dev Return value\n     * @return value of salt\n     */\n    function retrieveSalt() private view returns (string memory) {\n        return salt;\n    }\n\n    function retrivePassword() private view returns (string memory) {\n        return password;\n    }\n\n    /**\n     * @dev Return all data via a event\n     */\n    function retriveAll() public {\n        emit SaltnPepper(retrivePassword(), retrieveSalt());\n    }\n\n    /**\n     * @param _password The encrypted password\n     * @param _salt The salt used\n     */\n    function emitAll(string memory _password, string memory _salt) public {\n        storePassword(_password);\n        storeSalt(_salt);\n    }\n}\n",
  "sourcePath": "/home/aitorru/prog/tfg-self-sovereign-identity/soliditySource/contracts/_Storage.sol",
  "compiler": {
    "name": "solc",
    "version": "0.8.9+commit.e5eed63a.Emscripten.clang"
  },
  "schemaVersion": "3.4.3",
  "updatedAt": "2021-11-24T14:32:09.220Z",
  "networkType": "ethereum",
  "devdoc": {
    "details": "Store & retrieve value in a variable",
    "kind": "dev",
    "methods": {
      "emitAll(string,string)": {
        "params": {
          "_password": "The encrypted password",
          "_salt": "The salt used"
        }
      },
      "retriveAll()": {
        "details": "Return all data via a event"
      }
    },
    "title": "Storage",
    "version": 1
  },
  "userdoc": {
    "kind": "user",
    "methods": {},
    "version": 1
  }
}