{
  "contractName": "Storage",
  "abi": [
    {
      "inputs": [
        {
          "internalType": "string",
          "name": "_salt",
          "type": "string"
        }
      ],
      "name": "storeSalt",
      "outputs": [],
      "stateMutability": "nonpayable",
      "type": "function"
    },
    {
      "inputs": [
        {
          "internalType": "string",
          "name": "_password",
          "type": "string"
        }
      ],
      "name": "storePassword",
      "outputs": [],
      "stateMutability": "nonpayable",
      "type": "function"
    },
    {
      "inputs": [],
      "name": "retrieveSalt",
      "outputs": [
        {
          "internalType": "string",
          "name": "",
          "type": "string"
        }
      ],
      "stateMutability": "view",
      "type": "function",
      "constant": true
    }
  ],
  "bytecode": "0x608060405234801561001057600080fd5b506104e9806100206000396000f3fe608060405234801561001057600080fd5b50600436106100415760003560e01c8063c70cc56014610046578063c9a9ee0214610062578063dc022a211461007e575b600080fd5b610060600480360381019061005b919061035f565b61009c565b005b61007c6004803603810190610077919061035f565b6100b6565b005b6100866100d0565b6040516100939190610430565b60405180910390f35b80600290805190602001906100b2929190610162565b5050565b80600190805190602001906100cc929190610162565b5050565b6060600180546100df90610481565b80601f016020809104026020016040519081016040528092919081815260200182805461010b90610481565b80156101585780601f1061012d57610100808354040283529160200191610158565b820191906000526020600020905b81548152906001019060200180831161013b57829003601f168201915b5050505050905090565b82805461016e90610481565b90600052602060002090601f01602090048101928261019057600085556101d7565b82601f106101a957805160ff19168380011785556101d7565b828001600101855582156101d7579182015b828111156101d65782518255916020019190600101906101bb565b5b5090506101e491906101e8565b5090565b5b808211156102015760008160009055506001016101e9565b5090565b6000604051905090565b600080fd5b600080fd5b600080fd5b600080fd5b6000601f19601f8301169050919050565b7f4e487b7100000000000000000000000000000000000000000000000000000000600052604160045260246000fd5b61026c82610223565b810181811067ffffffffffffffff8211171561028b5761028a610234565b5b80604052505050565b600061029e610205565b90506102aa8282610263565b919050565b600067ffffffffffffffff8211156102ca576102c9610234565b5b6102d382610223565b9050602081019050919050565b82818337600083830152505050565b60006103026102fd846102af565b610294565b90508281526020810184848401111561031e5761031d61021e565b5b6103298482856102e0565b509392505050565b600082601f83011261034657610345610219565b5b81356103568482602086016102ef565b91505092915050565b6000602082840312156103755761037461020f565b5b600082013567ffffffffffffffff81111561039357610392610214565b5b61039f84828501610331565b91505092915050565b600081519050919050565b600082825260208201905092915050565b60005b838110156103e25780820151818401526020810190506103c7565b838111156103f1576000848401525b50505050565b6000610402826103a8565b61040c81856103b3565b935061041c8185602086016103c4565b61042581610223565b840191505092915050565b6000602082019050818103600083015261044a81846103f7565b905092915050565b7f4e487b7100000000000000000000000000000000000000000000000000000000600052602260045260246000fd5b6000600282049050600182168061049957607f821691505b602082108114156104ad576104ac610452565b5b5091905056fea2646970667358221220a65a2bb0d103de6044d0dc92e592379ce500116113b2bacdcd384909b50862b364736f6c63430008090033",
  "immutableReferences": {},
  "source": "// SPDX-License-Identifier: GPL-3.0\n\npragma solidity >=0.7.0 <0.9.0;\n\n/**\n * @title Storage\n * @dev Store & retrieve value in a variable\n */\ncontract Storage {\n    uint256 number;\n    string salt;\n    string password; // Stored with bcrypt\n\n    /**\n     * @dev Store the salt for bcrypt\n     * @param _salt value to store\n     */\n    function storeSalt(string memory _salt) public {\n        salt = _salt;\n    }\n\n    /**\n     * @dev Store the password for bcrypt\n     * @param _password value to store\n     */\n    function storePassword(string memory _password) public {\n        password = _password;\n    }\n\n    /**\n     * @dev Return value\n     * @return value of salt\n     */\n    function retrieveSalt() public view returns (string memory) {\n        return salt;\n    }\n}\n",
  "sourcePath": "/home/aitorru/prog/tfg-self-sovereign-identity/soliditySource/contracts/_Storage.sol",
  "compiler": {
    "name": "solc",
    "version": "0.8.9+commit.e5eed63a.Emscripten.clang"
  },
  "schemaVersion": "3.4.3",
  "updatedAt": "2021-11-23T13:18:07.123Z",
  "networkType": "ethereum",
  "devdoc": {
    "details": "Store & retrieve value in a variable",
    "kind": "dev",
    "methods": {
      "retrieveSalt()": {
        "details": "Return value",
        "returns": {
          "_0": "value of salt"
        }
      },
      "storePassword(string)": {
        "details": "Store the password for bcrypt",
        "params": {
          "_password": "value to store"
        }
      },
      "storeSalt(string)": {
        "details": "Store the salt for bcrypt",
        "params": {
          "_salt": "value to store"
        }
      }
    },
    "title": "Storage",
    "version": 1
  },
  "userdoc": {
    "kind": "user",
    "methods": {},
    "version": 1
  }
}